{
  "_format": "hh-sol-artifact-1",
  "contractName": "EncryptedRatingSystem",
  "sourceName": "contracts/EncryptedRatingSystem.sol",
  "abi": [
    {
      "inputs": [],
      "name": "HandlesAlreadySavedForRequestID",
      "type": "error"
    },
    {
      "anonymous": false,
      "inputs": [
        {
          "indexed": false,
          "internalType": "uint32",
          "name": "averageRating",
          "type": "uint32"
        },
        {
          "indexed": false,
          "internalType": "uint32",
          "name": "totalCount",
          "type": "uint32"
        }
      ],
      "name": "GlobalStatsPublished",
      "type": "event"
    },
    {
      "anonymous": false,
      "inputs": [
        {
          "indexed": false,
          "internalType": "uint256",
          "name": "requestId",
          "type": "uint256"
        }
      ],
      "name": "GlobalStatsRequested",
      "type": "event"
    },
    {
      "anonymous": false,
      "inputs": [
        {
          "indexed": true,
          "internalType": "uint256",
          "name": "entryId",
          "type": "uint256"
        },
        {
          "indexed": true,
          "internalType": "address",
          "name": "submitter",
          "type": "address"
        }
      ],
      "name": "RatingDeleted",
      "type": "event"
    },
    {
      "anonymous": false,
      "inputs": [
        {
          "indexed": true,
          "internalType": "uint256",
          "name": "entryId",
          "type": "uint256"
        },
        {
          "indexed": true,
          "internalType": "address",
          "name": "submitter",
          "type": "address"
        },
        {
          "indexed": false,
          "internalType": "string",
          "name": "subject",
          "type": "string"
        },
        {
          "indexed": false,
          "internalType": "uint256",
          "name": "timestamp",
          "type": "uint256"
        }
      ],
      "name": "RatingSubmitted",
      "type": "event"
    },
    {
      "anonymous": false,
      "inputs": [
        {
          "indexed": true,
          "internalType": "uint256",
          "name": "entryId",
          "type": "uint256"
        },
        {
          "indexed": true,
          "internalType": "address",
          "name": "submitter",
          "type": "address"
        },
        {
          "indexed": false,
          "internalType": "string",
          "name": "newSubject",
          "type": "string"
        }
      ],
      "name": "RatingUpdated",
      "type": "event"
    },
    {
      "anonymous": false,
      "inputs": [
        {
          "indexed": true,
          "internalType": "bytes32",
          "name": "subjectHash",
          "type": "bytes32"
        },
        {
          "indexed": false,
          "internalType": "uint32",
          "name": "averageRating",
          "type": "uint32"
        },
        {
          "indexed": false,
          "internalType": "uint32",
          "name": "count",
          "type": "uint32"
        }
      ],
      "name": "SubjectStatsPublished",
      "type": "event"
    },
    {
      "anonymous": false,
      "inputs": [
        {
          "indexed": true,
          "internalType": "bytes32",
          "name": "subjectHash",
          "type": "bytes32"
        },
        {
          "indexed": false,
          "internalType": "uint256",
          "name": "requestId",
          "type": "uint256"
        }
      ],
      "name": "SubjectStatsRequested",
      "type": "event"
    },
    {
      "inputs": [],
      "name": "deleteRating",
      "outputs": [],
      "stateMutability": "nonpayable",
      "type": "function"
    },
    {
      "inputs": [],
      "name": "entryCount",
      "outputs": [
        {
          "internalType": "uint256",
          "name": "",
          "type": "uint256"
        }
      ],
      "stateMutability": "view",
      "type": "function"
    },
    {
      "inputs": [],
      "name": "getActiveEntryCount",
      "outputs": [
        {
          "internalType": "uint32",
          "name": "",
          "type": "uint32"
        }
      ],
      "stateMutability": "view",
      "type": "function"
    },
    {
      "inputs": [],
      "name": "getEncryptedGlobalStats",
      "outputs": [
        {
          "internalType": "euint32",
          "name": "encryptedSum",
          "type": "bytes32"
        },
        {
          "internalType": "uint32",
          "name": "count",
          "type": "uint32"
        }
      ],
      "stateMutability": "view",
      "type": "function"
    },
    {
      "inputs": [
        {
          "internalType": "uint256",
          "name": "entryId",
          "type": "uint256"
        }
      ],
      "name": "getEncryptedRating",
      "outputs": [
        {
          "internalType": "euint32",
          "name": "",
          "type": "bytes32"
        }
      ],
      "stateMutability": "view",
      "type": "function"
    },
    {
      "inputs": [
        {
          "internalType": "string",
          "name": "subject",
          "type": "string"
        }
      ],
      "name": "getEncryptedSubjectStats",
      "outputs": [
        {
          "internalType": "euint32",
          "name": "encryptedSum",
          "type": "bytes32"
        },
        {
          "internalType": "uint32",
          "name": "count",
          "type": "uint32"
        }
      ],
      "stateMutability": "view",
      "type": "function"
    },
    {
      "inputs": [
        {
          "internalType": "uint256",
          "name": "entryId",
          "type": "uint256"
        }
      ],
      "name": "getEntry",
      "outputs": [
        {
          "internalType": "string",
          "name": "subject",
          "type": "string"
        },
        {
          "internalType": "uint256",
          "name": "timestamp",
          "type": "uint256"
        },
        {
          "internalType": "address",
          "name": "submitter",
          "type": "address"
        },
        {
          "internalType": "bool",
          "name": "isActive",
          "type": "bool"
        }
      ],
      "stateMutability": "view",
      "type": "function"
    },
    {
      "inputs": [],
      "name": "getEntryCount",
      "outputs": [
        {
          "internalType": "uint256",
          "name": "",
          "type": "uint256"
        }
      ],
      "stateMutability": "view",
      "type": "function"
    },
    {
      "inputs": [],
      "name": "getGlobalStats",
      "outputs": [
        {
          "internalType": "uint32",
          "name": "averageRating",
          "type": "uint32"
        },
        {
          "internalType": "uint32",
          "name": "totalCount",
          "type": "uint32"
        }
      ],
      "stateMutability": "view",
      "type": "function"
    },
    {
      "inputs": [
        {
          "internalType": "string",
          "name": "subject",
          "type": "string"
        }
      ],
      "name": "getSubjectEntryCount",
      "outputs": [
        {
          "internalType": "uint32",
          "name": "",
          "type": "uint32"
        }
      ],
      "stateMutability": "view",
      "type": "function"
    },
    {
      "inputs": [
        {
          "internalType": "string",
          "name": "subject",
          "type": "string"
        }
      ],
      "name": "getSubjectStats",
      "outputs": [
        {
          "internalType": "uint32",
          "name": "averageRating",
          "type": "uint32"
        },
        {
          "internalType": "uint32",
          "name": "count",
          "type": "uint32"
        }
      ],
      "stateMutability": "view",
      "type": "function"
    },
    {
      "inputs": [
        {
          "internalType": "uint256",
          "name": "requestId",
          "type": "uint256"
        },
        {
          "internalType": "bytes",
          "name": "cleartexts",
          "type": "bytes"
        },
        {
          "internalType": "bytes[]",
          "name": "",
          "type": "bytes[]"
        }
      ],
      "name": "globalStatsCallback",
      "outputs": [
        {
          "internalType": "bool",
          "name": "",
          "type": "bool"
        }
      ],
      "stateMutability": "nonpayable",
      "type": "function"
    },
    {
      "inputs": [
        {
          "internalType": "address",
          "name": "",
          "type": "address"
        }
      ],
      "name": "hasSubmitted",
      "outputs": [
        {
          "internalType": "bool",
          "name": "",
          "type": "bool"
        }
      ],
      "stateMutability": "view",
      "type": "function"
    },
    {
      "inputs": [
        {
          "internalType": "address",
          "name": "user",
          "type": "address"
        },
        {
          "internalType": "string",
          "name": "subject",
          "type": "string"
        }
      ],
      "name": "hasSubmittedForSubject",
      "outputs": [
        {
          "internalType": "bool",
          "name": "",
          "type": "bool"
        }
      ],
      "stateMutability": "view",
      "type": "function"
    },
    {
      "inputs": [],
      "name": "isGlobalStatsFinalized",
      "outputs": [
        {
          "internalType": "bool",
          "name": "",
          "type": "bool"
        }
      ],
      "stateMutability": "view",
      "type": "function"
    },
    {
      "inputs": [
        {
          "internalType": "string",
          "name": "subject",
          "type": "string"
        }
      ],
      "name": "isSubjectStatsFinalized",
      "outputs": [
        {
          "internalType": "bool",
          "name": "",
          "type": "bool"
        }
      ],
      "stateMutability": "view",
      "type": "function"
    },
    {
      "inputs": [],
      "name": "protocolId",
      "outputs": [
        {
          "internalType": "uint256",
          "name": "",
          "type": "uint256"
        }
      ],
      "stateMutability": "pure",
      "type": "function"
    },
    {
      "inputs": [
        {
          "internalType": "uint256",
          "name": "",
          "type": "uint256"
        }
      ],
      "name": "ratingEntries",
      "outputs": [
        {
          "internalType": "address",
          "name": "submitter",
          "type": "address"
        },
        {
          "internalType": "string",
          "name": "subject",
          "type": "string"
        },
        {
          "internalType": "euint32",
          "name": "encryptedRating",
          "type": "bytes32"
        },
        {
          "internalType": "uint256",
          "name": "timestamp",
          "type": "uint256"
        },
        {
          "internalType": "bool",
          "name": "isActive",
          "type": "bool"
        }
      ],
      "stateMutability": "view",
      "type": "function"
    },
    {
      "inputs": [],
      "name": "requestGlobalStats",
      "outputs": [],
      "stateMutability": "nonpayable",
      "type": "function"
    },
    {
      "inputs": [
        {
          "internalType": "string",
          "name": "subject",
          "type": "string"
        }
      ],
      "name": "requestSubjectStats",
      "outputs": [],
      "stateMutability": "nonpayable",
      "type": "function"
    },
    {
      "inputs": [
        {
          "internalType": "uint256",
          "name": "requestId",
          "type": "uint256"
        },
        {
          "internalType": "bytes",
          "name": "cleartexts",
          "type": "bytes"
        },
        {
          "internalType": "bytes[]",
          "name": "",
          "type": "bytes[]"
        }
      ],
      "name": "subjectStatsCallback",
      "outputs": [
        {
          "internalType": "bool",
          "name": "",
          "type": "bool"
        }
      ],
      "stateMutability": "nonpayable",
      "type": "function"
    },
    {
      "inputs": [
        {
          "internalType": "externalEuint32",
          "name": "encryptedRating",
          "type": "bytes32"
        },
        {
          "internalType": "bytes",
          "name": "inputProof",
          "type": "bytes"
        },
        {
          "internalType": "string",
          "name": "subject",
          "type": "string"
        }
      ],
      "name": "submitRating",
      "outputs": [],
      "stateMutability": "nonpayable",
      "type": "function"
    },
    {
      "inputs": [
        {
          "internalType": "externalEuint32",
          "name": "encryptedRating",
          "type": "bytes32"
        },
        {
          "internalType": "bytes",
          "name": "inputProof",
          "type": "bytes"
        },
        {
          "internalType": "string",
          "name": "newSubject",
          "type": "string"
        }
      ],
      "name": "updateRating",
      "outputs": [],
      "stateMutability": "nonpayable",
      "type": "function"
    },
    {
      "inputs": [
        {
          "internalType": "address",
          "name": "",
          "type": "address"
        },
        {
          "internalType": "bytes32",
          "name": "",
          "type": "bytes32"
        }
      ],
      "name": "userSubjectEntryId",
      "outputs": [
        {
          "internalType": "uint256",
          "name": "",
          "type": "uint256"
        }
      ],
      "stateMutability": "view",
      "type": "function"
    }
  ],
  "bytecode": "0x608060405234801561000f575f5ffd5b5061018a6100ae604080516080810182525f80825260208201819052918101829052606081019190915250604080516080810182527350157cffd6bbfa2dece204a89ec419c23ef5755d815273cd3ab3bd6bcc0c0bf3e27912a92043e817b1cf69602082015273a02cda4ca3a71d7c46997716f4283aa851c2881291810191909152731364cbbf2cdf5032c47d8226a6f6fbd2afcdacac606082015290565b80517f9e7b61f58c47dc699ac88507c4f5bb9f121c03808c5676a8078fe583e464970080546001600160a01b03199081166001600160a01b039384161790915560208301517f9e7b61f58c47dc699ac88507c4f5bb9f121c03808c5676a8078fe583e46497018054831691841691909117905560408301517f9e7b61f58c47dc699ac88507c4f5bb9f121c03808c5676a8078fe583e46497028054831691841691909117905560608301517f9e7b61f58c47dc699ac88507c4f5bb9f121c03808c5676a8078fe583e46497038054909216921691909117905550565b612763806101975f395ff3fe608060405234801561000f575f5ffd5b506004361061018f575f3560e01c8063918e02a4116100dd578063d5ab03d611610088578063dfb9605611610063578063dfb96056146103c7578063e47e195c146103f4578063f449e8cb14610407575f5ffd5b8063d5ab03d614610382578063da1f12ab146103ac578063dcb64d3f146103b4575f5ffd5b80639eb9bdb5116100b85780639eb9bdb514610328578063bae78d7b1461033b578063c5245e281461035e575f5ffd5b8063918e02a4146102b557806393606077146102dc5780639971203f14610315575f5ffd5b80635fe4aa091161013d5780637286b6f9116101185780637286b6f91461027b5780637a360e651461028e5780638571319214610296575f5ffd5b80635fe4aa0914610219578063679f9a551461022c5780636b4169c314610256575f5ffd5b80632393a5b91161016d5780632393a5b9146101dc578063388044b3146101ef57806356aa80cc14610211575f5ffd5b806309344d9f146101935780630cbb0f831461019d5780631ccc7465146101b9575b5f5ffd5b61019b61041a565b005b6101a660015481565b6040519081526020015b60405180910390f35b6101cc6101c736600461207d565b61066c565b60405190151581526020016101b0565b600b54640100000000900460ff166101cc565b6101cc6101fd366004612199565b60026020525f908152604090205460ff1681565b61019b610885565b6101cc61022736600461207d565b6109e7565b6101a661023a3660046121b2565b600360209081525f928352604080842090915290825290205481565b61025e610c14565b6040805163ffffffff9384168152929091166020830152016101b0565b61025e6102893660046121da565b610c88565b6001546101a6565b60075463ffffffff165b60405163ffffffff90911681526020016101b0565b60065460075463ffffffff165b6040805192835263ffffffff9091166020830152016101b0565b6102c26102ea3660046121da565b80516020918201205f908152600482526040808220546005909352902054909163ffffffff90911690565b61019b6103233660046121da565b610d1f565b61019b61033636600461220c565b610e9d565b61034e6103493660046122ae565b6112e2565b6040516101b094939291906122f3565b61037161036c3660046122ae565b6113b8565b6040516101b095949392919061232c565b6101cc6103903660046121da565b80516020918201205f9081526009909152604090205460ff1690565b6127116101a6565b6101cc6103c236600461236c565b61147b565b6102a06103d53660046121da565b80516020918201205f9081526005909152604090205463ffffffff1690565b6101a66104023660046122ae565b6114eb565b61019b61041536600461220c565b611552565b335f9081526002602052604090205460ff1661047d5760405162461bcd60e51b815260206004820152601260248201527f4e6f20656e74727920746f2064656c657465000000000000000000000000000060448201526064015b60405180910390fd5b5f5b600154811015610623575f818152602081905260409020546001600160a01b0316331480156104be57505f8181526020819052604090206004015460ff165b1561061b575f8181526020819052604080822090519091906104e49060018401906123ef565b6040518091039020905061050d60045f8381526020019081526020015f205483600201546118f5565b5f8281526004602090815260408083209390935560059052908120805463ffffffff169161053a83612474565b91906101000a81548163ffffffff021916908363ffffffff1602179055505061056960065483600201546118f5565b6006556007805463ffffffff16905f61058183612474565b825463ffffffff9182166101009390930a9283029190920219909116179055506004808301805460ff19908116909155335f9081526002602090815260408083208054909416909355848252929092529020546105dd90611923565b506105e9600654611923565b50604051339084907fdf31c44878ebbc65485bd6482609d6de1849b9b06faa329a3598795b75bd584a905f90a3505050565b60010161047f565b5060405162461bcd60e51b815260206004820152601560248201527f4e6f2061637469766520656e74727920666f756e6400000000000000000000006044820152606401610474565b5f838152600c602052604081205460ff166106bb5760405162461bcd60e51b815260206004820152600f60248201526e125b9d985b1a59081c995c5d595cdd608a1b6044820152606401610474565b600b54640100000000900460ff16156107165760405162461bcd60e51b815260206004820152601160248201527f416c72656164792066696e616c697a65640000000000000000000000000000006044820152606401610474565b60075463ffffffff1661076b5760405162461bcd60e51b815260206004820152601160248201527f4e6f2061637469766520656e74726965730000000000000000000000000000006044820152606401610474565b5f6004845110156107be5760405162461bcd60e51b815260206004820152601860248201527f496e76616c696420636c65617274657874206c656e67746800000000000000006044820152606401610474565b50602083015160075460e09190911c9063ffffffff166107de575f6107f1565b6007546107f19063ffffffff1682612492565b600b805464ffffffffff191663ffffffff928316176401000000001781555f878152600c602052604090819020805460ff19169055905460075491517f7f1644b023d5c01aa26b53a95b16b69f8d81d3678742942d9c78ca1e649de341936108709392811692169063ffffffff92831681529116602082015260400190565b60405180910390a160019150505b9392505050565b60075463ffffffff166108da5760405162461bcd60e51b815260206004820152601260248201527f4e6f206461746120746f206465637279707400000000000000000000000000006044820152606401610474565b600b54640100000000900460ff16156109355760405162461bcd60e51b815260206004820152601e60248201527f476c6f62616c20737461747320616c72656164792066696e616c697a656400006044820152606401610474565b6040805160018082528183019092525f916020808301908036833701905050905061095f60065490565b815f81518110610971576109716124c5565b60209081029190910101525f61098e82631ccc746560e01b611932565b5f818152600c602052604090819020805460ff19166001179055519091507f283d77d7931fbcd8f467bf5bdd2bbdf1882ebd28e9d673f55ea1d39b769fdc63906109db9083815260200190565b60405180910390a15050565b5f838152600a602052604081205480610a345760405162461bcd60e51b815260206004820152600f60248201526e125b9d985b1a59081c995c5d595cdd608a1b6044820152606401610474565b5f8181526009602052604090205460ff1615610a925760405162461bcd60e51b815260206004820152601160248201527f416c72656164792066696e616c697a65640000000000000000000000000000006044820152606401610474565b5f8181526005602052604090205463ffffffff16610af25760405162461bcd60e51b815260206004820152600760248201527f4e6f2064617461000000000000000000000000000000000000000000000000006044820152606401610474565b5f600485511015610b455760405162461bcd60e51b815260206004820152601860248201527f496e76616c696420636c65617274657874206c656e67746800000000000000006044820152606401610474565b506020848101515f838152600590925260409091205460e09190911c9063ffffffff1680610b73575f610b7d565b610b7d8183612492565b5f848152600860208181526040808420805463ffffffff191663ffffffff96871617815560098352818520805460ff191660011790558c8552600a8352818520859055938890529181529154815190841681529284169183019190915284917f1a483a03113ab2e34dc4e46d047ab215b925d461b3cc0fa7cd6dda41d43ca3cf910160405180910390a25060019695505050505050565b600b545f908190640100000000900460ff16610c725760405162461bcd60e51b815260206004820152601e60248201527f476c6f62616c207374617473206e6f7420617661696c61626c652079657400006044820152606401610474565b5050600b5460075463ffffffff91821692911690565b80516020808301919091205f8181526009909252604082205482919060ff16610cf35760405162461bcd60e51b815260206004820152601f60248201527f5375626a656374207374617473206e6f7420617661696c61626c6520796574006044820152606401610474565b5f9081526008602090815260408083205460059092529091205463ffffffff9182169591169350915050565b80516020808301919091205f818152600590925260409091205463ffffffff16610d8b5760405162461bcd60e51b815260206004820152601860248201527f4e6f206461746120666f722074686973207375626a65637400000000000000006044820152606401610474565b5f8181526009602052604090205460ff1615610de95760405162461bcd60e51b815260206004820152601f60248201527f5375626a65637420737461747320616c72656164792066696e616c697a6564006044820152606401610474565b6040805160018082528183019092525f9160208083019080368337019050505f83815260046020526040902054909150815f81518110610e2b57610e2b6124c5565b60209081029190910101525f610e4882635fe4aa0960e01b611932565b5f818152600a6020526040908190208590555190915083907f2de8eb4efb6e879310b564b649205ee74dbddc954d50766ffdd2f406d4dc149090610e8f9084815260200190565b60405180910390a250505050565b335f9081526002602052604090205460ff16610efb5760405162461bcd60e51b815260206004820152601260248201527f4e6f20656e74727920746f2075706461746500000000000000000000000000006044820152606401610474565b5f815111610f4b5760405162461bcd60e51b815260206004820152601760248201527f5375626a6563742063616e6e6f7420626520656d7074790000000000000000006044820152606401610474565b606481511115610f905760405162461bcd60e51b815260206004820152601060248201526f5375626a65637420746f6f206c6f6e6760801b6044820152606401610474565b5f80805b600154811015610fec575f818152602081905260409020546001600160a01b031633148015610fd357505f8181526020819052604090206004015460ff165b15610fe45780925060019150610fec565b600101610f94565b508061103a5760405162461bcd60e51b815260206004820152601560248201527f4e6f2061637469766520656e74727920666f756e6400000000000000000000006044820152606401610474565b5f828152602081815260408083208151601f89018490048402810184019092528782529291611084918a918a908a90819084018382808284375f9201919091525061193e92505050565b90505f8260010160405161109891906123ef565b604051809103902090506110c160045f8381526020019081526020015f205484600201546118f5565b5f8281526004602090815260408083209390935560059052908120805463ffffffff16916110ee83612474565b91906101000a81548163ffffffff021916908363ffffffff1602179055505061111d60065484600201546118f5565b6006556007805463ffffffff16905f61113583612474565b91906101000a81548163ffffffff021916908363ffffffff160217905550508183600201819055508583600101908161116e9190612525565b5042600384015585516020808801919091205f81815260059092526040822054909163ffffffff90911690036111b3575f8181526004602052604090208390556111da565b5f818152600460205260409020546111cb908461194b565b5f828152600460205260409020555b5f818152600560205260408120805463ffffffff16916111f9836125e0565b91906101000a81548163ffffffff021916908363ffffffff160217905550506112246006548461194b565b6006556007805463ffffffff16905f61123c836125e0565b91906101000a81548163ffffffff021916908363ffffffff1602179055505061126483611923565b5061126f8333611979565b505f8181526004602052604090205461128790611923565b50611293600654611923565b50336001600160a01b0316867f8ae95be9d516a2114e4cd2beba1091d2cbc2e65317355e076ae69c03f65fb908896040516112ce9190612604565b60405180910390a350505050505050505050565b5f8181526020819052604081206003810154815460048301546001840180546060969586958695919490926001600160a01b039092169160ff90911690849061132a906123b7565b80601f0160208091040260200160405190810160405280929190818152602001828054611356906123b7565b80156113a15780601f10611378576101008083540402835291602001916113a1565b820191905f5260205f20905b81548152906001019060200180831161138457829003601f168201915b505050505093509450945094509450509193509193565b5f60208190529081526040902080546001820180546001600160a01b0390921692916113e3906123b7565b80601f016020809104026020016040519081016040528092919081815260200182805461140f906123b7565b801561145a5780601f106114315761010080835404028352916020019161145a565b820191905f5260205f20905b81548152906001019060200180831161143d57829003601f168201915b50505050600283015460038401546004909401549293909290915060ff1685565b80516020808301919091206001600160a01b0384165f90815260038352604080822083835290935291822054158015906114e357506001600160a01b0384165f90815260036020908152604080832084845282528083205483529082905290206004015460ff165b949350505050565b5f600154821061153d5760405162461bcd60e51b815260206004820152601460248201527f456e74727920646f6573206e6f742065786973740000000000000000000000006044820152606401610474565b505f9081526020819052604090206002015490565b5f8151116115a25760405162461bcd60e51b815260206004820152601760248201527f5375626a6563742063616e6e6f7420626520656d7074790000000000000000006044820152606401610474565b6064815111156115e75760405162461bcd60e51b815260206004820152601060248201526f5375626a65637420746f6f206c6f6e6760801b6044820152606401610474565b805160208201206115f8338361147b565b156116505760405162461bcd60e51b815260206004820152602260248201527f416c7265616479207375626d697474656420666f722074686973207375626a6560448201526118dd60f21b6064820152608401610474565b5f6116908686868080601f0160208091040260200160405190810160405280939291908181526020018383808284375f9201919091525061193e92505050565b600180549192505f9190826116a483612616565b909155506040805160a08101825233815260208082018881528284018790524260608401526001608084018190525f8681529283905293909120825181547fffffffffffffffffffffffff0000000000000000000000000000000000000000166001600160a01b039091161781559051939450909290918201906117289082612525565b5060408281015160028084019190915560608401516003808501919091556080909401516004909301805493151560ff19948516179055335f90815260209182528281208054909416600117909355928352808220868352835280822084905560059092529081205463ffffffff1690036117b2575f8381526004602052604090208290556117d9565b5f838152600460205260409020546117ca908361194b565b5f848152600460205260409020555b5f838152600560205260408120805463ffffffff16916117f8836125e0565b82546101009290920a63ffffffff818102199093169183160217909155600754165f03905061182b57600682905561183b565b6118376006548361194b565b6006555b6007805463ffffffff16905f611850836125e0565b91906101000a81548163ffffffff021916908363ffffffff1602179055505061187882611923565b506118838233611979565b505f8381526004602052604090205461189b90611923565b506118a7600654611923565b50336001600160a01b0316817f32289c6d2fbcc58e31dacc143243323d6515ffe50cae675d805b5e49db67c81786426040516118e492919061262e565b60405180910390a350505050505050565b5f82611907576119045f61198b565b92505b81611918576119155f61198b565b91505b61087e83835f6119a3565b5f61192e8230611a9e565b5090565b5f61087e83835f611b27565b5f61087e83836004611c55565b5f8261195d5761195a5f61198b565b92505b8161196e5761196b5f61198b565b91505b61087e83835f611d75565b5f6119848383611a9e565b5090919050565b5f61199d8263ffffffff166004611e2a565b92915050565b5f5f82156119b65750600160f81b6119b9565b505f5b7f9e7b61f58c47dc699ac88507c4f5bb9f121c03808c5676a8078fe583e4649701546040516303056db360e31b815260048101879052602481018690527fff00000000000000000000000000000000000000000000000000000000000000831660448201527f9e7b61f58c47dc699ac88507c4f5bb9f121c03808c5676a8078fe583e4649700916001600160a01b03169063182b6d98906064015b6020604051808303815f875af1158015611a70573d5f5f3e3d5ffd5b505050506040513d601f19601f82011682018060405250810190611a94919061264f565b9695505050505050565b5f7f9e7b61f58c47dc699ac88507c4f5bb9f121c03808c5676a8078fe583e46497008054604051635ca4b5b160e11b8152600481018690526001600160a01b03858116602483015292935091169063b9496b62906044015f604051808303815f87803b158015611b0c575f5ffd5b505af1158015611b1e573d5f5f3e3d5ffd5b50505050505050565b7f878245876662ba28a480c5ea71726db859fb50222b0a3d7cbbc21cfa336faf0080547f9e7b61f58c47dc699ac88507c4f5bb9f121c03808c5676a8078fe583e46497008054604051637d6e912360e11b81529293926001600160a01b039091169063fadd224690611b9d9089906004016126a0565b5f604051808303815f87803b158015611bb4575f5ffd5b505af1158015611bc6573d5f5f3e3d5ffd5b5050506002820154604051633263b83b60e01b81526001600160a01b039091169150633263b83b908690611c029087908b908b906004016126b2565b5f604051808303818588803b158015611c19575f5ffd5b505af1158015611c2b573d5f5f3e3d5ffd5b5050505050611c3a8387611edf565b8154825f611c4783612616565b919050555050509392505050565b7f9e7b61f58c47dc699ac88507c4f5bb9f121c03808c5676a8078fe583e46497015460405163196d0b9b60e01b81525f917f9e7b61f58c47dc699ac88507c4f5bb9f121c03808c5676a8078fe583e4649700916001600160a01b039091169063196d0b9b90611cce908890339089908990600401612703565b6020604051808303815f875af1158015611cea573d5f5f3e3d5ffd5b505050506040513d601f19601f82011682018060405250810190611d0e919061264f565b8154604051630f8e573b60e21b8152600481018390523360248201529193506001600160a01b031690633e395cec906044015f604051808303815f87803b158015611d57575f5ffd5b505af1158015611d69573d5f5f3e3d5ffd5b50505050509392505050565b5f5f8215611d885750600160f81b611d8b565b505f5b7f9e7b61f58c47dc699ac88507c4f5bb9f121c03808c5676a8078fe583e46497015460405163022f65e760e31b815260048101879052602481018690527fff00000000000000000000000000000000000000000000000000000000000000831660448201527f9e7b61f58c47dc699ac88507c4f5bb9f121c03808c5676a8078fe583e4649700916001600160a01b03169063117b2f3890606401611a54565b7f9e7b61f58c47dc699ac88507c4f5bb9f121c03808c5676a8078fe583e464970154604051639cd07acb60e01b81525f917f9e7b61f58c47dc699ac88507c4f5bb9f121c03808c5676a8078fe583e4649700916001600160a01b0390911690639cd07acb90611e9f9087908790600401612742565b6020604051808303815f875af1158015611ebb573d5f5f3e3d5ffd5b505050506040513d601f19601f820116820180604052508101906114e3919061264f565b5f8281527f878245876662ba28a480c5ea71726db859fb50222b0a3d7cbbc21cfa336faf0160205260409020547f878245876662ba28a480c5ea71726db859fb50222b0a3d7cbbc21cfa336faf009015611f4c57604051633f06d22b60e01b815260040160405180910390fd5b5f83815260018201602090815260409091208351611f6c92850190611f72565b50505050565b828054828255905f5260205f20908101928215611fab579160200282015b82811115611fab578251825591602001919060010190611f90565b5061192e9291505b8082111561192e575f8155600101611fb3565b634e487b7160e01b5f52604160045260245ffd5b604051601f8201601f1916810167ffffffffffffffff8111828210171561200357612003611fc6565b604052919050565b5f82601f83011261201a575f5ffd5b8135602083015f5f67ffffffffffffffff84111561203a5761203a611fc6565b50601f8301601f191660200161204f81611fda565b915050828152858383011115612063575f5ffd5b828260208301375f92810160200192909252509392505050565b5f5f5f6060848603121561208f575f5ffd5b83359250602084013567ffffffffffffffff8111156120ac575f5ffd5b6120b88682870161200b565b925050604084013567ffffffffffffffff8111156120d4575f5ffd5b8401601f810186136120e4575f5ffd5b803567ffffffffffffffff8111156120fe576120fe611fc6565b8060051b61210e60208201611fda565b91825260208184018101929081019089841115612129575f5ffd5b6020850192505b8383101561216f57823567ffffffffffffffff81111561214e575f5ffd5b61215d8b60208389010161200b565b83525060209283019290910190612130565b80955050505050509250925092565b80356001600160a01b0381168114612194575f5ffd5b919050565b5f602082840312156121a9575f5ffd5b61087e8261217e565b5f5f604083850312156121c3575f5ffd5b6121cc8361217e565b946020939093013593505050565b5f602082840312156121ea575f5ffd5b813567ffffffffffffffff811115612200575f5ffd5b6114e38482850161200b565b5f5f5f5f6060858703121561221f575f5ffd5b84359350602085013567ffffffffffffffff81111561223c575f5ffd5b8501601f8101871361224c575f5ffd5b803567ffffffffffffffff811115612262575f5ffd5b876020828401011115612273575f5ffd5b60209190910193509150604085013567ffffffffffffffff811115612296575f5ffd5b6122a28782880161200b565b91505092959194509250565b5f602082840312156122be575f5ffd5b5035919050565b5f81518084528060208401602086015e5f602082860101526020601f19601f83011685010191505092915050565b608081525f61230560808301876122c5565b6020830195909552506001600160a01b039290921660408301521515606090910152919050565b6001600160a01b038616815260a060208201525f61234d60a08301876122c5565b6040830195909552506060810192909252151560809091015292915050565b5f5f6040838503121561237d575f5ffd5b6123868361217e565b9150602083013567ffffffffffffffff8111156123a1575f5ffd5b6123ad8582860161200b565b9150509250929050565b600181811c908216806123cb57607f821691505b6020821081036123e957634e487b7160e01b5f52602260045260245ffd5b50919050565b5f5f83546123fc816123b7565b600182168015612413576001811461242857612455565b60ff1983168652811515820286019350612455565b865f5260205f205f5b8381101561244d57815488820152600190910190602001612431565b505081860193505b509195945050505050565b634e487b7160e01b5f52601160045260245ffd5b5f63ffffffff82168061248957612489612460565b5f190192915050565b5f63ffffffff8316806124b357634e487b7160e01b5f52601260045260245ffd5b8063ffffffff84160491505092915050565b634e487b7160e01b5f52603260045260245ffd5b601f82111561252057805f5260205f20601f840160051c810160208510156124fe5750805b601f840160051c820191505b8181101561251d575f815560010161250a565b50505b505050565b815167ffffffffffffffff81111561253f5761253f611fc6565b6125538161254d84546123b7565b846124d9565b6020601f821160018114612585575f831561256e5750848201515b5f19600385901b1c1916600184901b17845561251d565b5f84815260208120601f198516915b828110156125b45787850151825560209485019460019092019101612594565b50848210156125d157868401515f19600387901b60f8161c191681555b50505050600190811b01905550565b5f63ffffffff821663ffffffff81036125fb576125fb612460565b60010192915050565b602081525f61087e60208301846122c5565b5f6001820161262757612627612460565b5060010190565b604081525f61264060408301856122c5565b90508260208301529392505050565b5f6020828403121561265f575f5ffd5b5051919050565b5f8151808452602084019350602083015f5b82811015612696578151865260209586019590910190600101612678565b5093949350505050565b602081525f61087e6020830184612666565b838152606060208201525f6126ca6060830185612666565b905063ffffffff60e01b83166040830152949350505050565b605481106126ff57634e487b7160e01b5f52602160045260245ffd5b9052565b8481526001600160a01b0384166020820152608060408201525f61272a60808301856122c5565b905061273960608301846126e3565b95945050505050565b8281526040810161087e60208301846126e356fea164736f6c634300081b000a",
  "linkReferences": {},
  "deployedLinkReferences": {}
}